{
  "_format": "hh-sol-artifact-1",
  "contractName": "VHMToken",
  "sourceName": "contracts/governance/vhm-token/VHMToken.sol",
  "abi": [
    {
      "inputs": [
        {
          "internalType": "contract IERC20",
          "name": "wrappedToken",
          "type": "address"
        }
      ],
      "stateMutability": "nonpayable",
      "type": "constructor"
    },
    {
      "inputs": [],
      "name": "InvalidShortString",
      "type": "error"
    },
    {
      "inputs": [
        {
          "internalType": "string",
          "name": "str",
          "type": "string"
        }
      ],
      "name": "StringTooLong",
      "type": "error"
    },
    {
      "anonymous": false,
      "inputs": [
        {
          "indexed": true,
          "internalType": "address",
          "name": "owner",
          "type": "address"
        },
        {
          "indexed": true,
          "internalType": "address",
          "name": "spender",
          "type": "address"
        },
        {
          "indexed": false,
          "internalType": "uint256",
          "name": "value",
          "type": "uint256"
        }
      ],
      "name": "Approval",
      "type": "event"
    },
    {
      "anonymous": false,
      "inputs": [
        {
          "indexed": true,
          "internalType": "address",
          "name": "delegator",
          "type": "address"
        },
        {
          "indexed": true,
          "internalType": "address",
          "name": "fromDelegate",
          "type": "address"
        },
        {
          "indexed": true,
          "internalType": "address",
          "name": "toDelegate",
          "type": "address"
        }
      ],
      "name": "DelegateChanged",
      "type": "event"
    },
    {
      "anonymous": false,
      "inputs": [
        {
          "indexed": true,
          "internalType": "address",
          "name": "delegate",
          "type": "address"
        },
        {
          "indexed": false,
          "internalType": "uint256",
          "name": "previousBalance",
          "type": "uint256"
        },
        {
          "indexed": false,
          "internalType": "uint256",
          "name": "newBalance",
          "type": "uint256"
        }
      ],
      "name": "DelegateVotesChanged",
      "type": "event"
    },
    {
      "anonymous": false,
      "inputs": [],
      "name": "EIP712DomainChanged",
      "type": "event"
    },
    {
      "anonymous": false,
      "inputs": [
        {
          "indexed": true,
          "internalType": "address",
          "name": "from",
          "type": "address"
        },
        {
          "indexed": true,
          "internalType": "address",
          "name": "to",
          "type": "address"
        },
        {
          "indexed": false,
          "internalType": "uint256",
          "name": "value",
          "type": "uint256"
        }
      ],
      "name": "Transfer",
      "type": "event"
    },
    {
      "inputs": [],
      "name": "CLOCK_MODE",
      "outputs": [
        {
          "internalType": "string",
          "name": "",
          "type": "string"
        }
      ],
      "stateMutability": "view",
      "type": "function"
    },
    {
      "inputs": [],
      "name": "DOMAIN_SEPARATOR",
      "outputs": [
        {
          "internalType": "bytes32",
          "name": "",
          "type": "bytes32"
        }
      ],
      "stateMutability": "view",
      "type": "function"
    },
    {
      "inputs": [
        {
          "internalType": "address",
          "name": "owner",
          "type": "address"
        },
        {
          "internalType": "address",
          "name": "spender",
          "type": "address"
        }
      ],
      "name": "allowance",
      "outputs": [
        {
          "internalType": "uint256",
          "name": "",
          "type": "uint256"
        }
      ],
      "stateMutability": "view",
      "type": "function"
    },
    {
      "inputs": [
        {
          "internalType": "address",
          "name": "spender",
          "type": "address"
        },
        {
          "internalType": "uint256",
          "name": "amount",
          "type": "uint256"
        }
      ],
      "name": "approve",
      "outputs": [
        {
          "internalType": "bool",
          "name": "",
          "type": "bool"
        }
      ],
      "stateMutability": "nonpayable",
      "type": "function"
    },
    {
      "inputs": [
        {
          "internalType": "address",
          "name": "account",
          "type": "address"
        }
      ],
      "name": "balanceOf",
      "outputs": [
        {
          "internalType": "uint256",
          "name": "",
          "type": "uint256"
        }
      ],
      "stateMutability": "view",
      "type": "function"
    },
    {
      "inputs": [
        {
          "internalType": "address",
          "name": "account",
          "type": "address"
        },
        {
          "internalType": "uint32",
          "name": "pos",
          "type": "uint32"
        }
      ],
      "name": "checkpoints",
      "outputs": [
        {
          "components": [
            {
              "internalType": "uint32",
              "name": "fromBlock",
              "type": "uint32"
            },
            {
              "internalType": "uint224",
              "name": "votes",
              "type": "uint224"
            }
          ],
          "internalType": "struct ERC20Votes.Checkpoint",
          "name": "",
          "type": "tuple"
        }
      ],
      "stateMutability": "view",
      "type": "function"
    },
    {
      "inputs": [],
      "name": "clock",
      "outputs": [
        {
          "internalType": "uint48",
          "name": "",
          "type": "uint48"
        }
      ],
      "stateMutability": "view",
      "type": "function"
    },
    {
      "inputs": [],
      "name": "decimals",
      "outputs": [
        {
          "internalType": "uint8",
          "name": "",
          "type": "uint8"
        }
      ],
      "stateMutability": "view",
      "type": "function"
    },
    {
      "inputs": [
        {
          "internalType": "address",
          "name": "spender",
          "type": "address"
        },
        {
          "internalType": "uint256",
          "name": "subtractedValue",
          "type": "uint256"
        }
      ],
      "name": "decreaseAllowance",
      "outputs": [
        {
          "internalType": "bool",
          "name": "",
          "type": "bool"
        }
      ],
      "stateMutability": "nonpayable",
      "type": "function"
    },
    {
      "inputs": [
        {
          "internalType": "address",
          "name": "delegatee",
          "type": "address"
        }
      ],
      "name": "delegate",
      "outputs": [],
      "stateMutability": "nonpayable",
      "type": "function"
    },
    {
      "inputs": [
        {
          "internalType": "address",
          "name": "delegatee",
          "type": "address"
        },
        {
          "internalType": "uint256",
          "name": "nonce",
          "type": "uint256"
        },
        {
          "internalType": "uint256",
          "name": "expiry",
          "type": "uint256"
        },
        {
          "internalType": "uint8",
          "name": "v",
          "type": "uint8"
        },
        {
          "internalType": "bytes32",
          "name": "r",
          "type": "bytes32"
        },
        {
          "internalType": "bytes32",
          "name": "s",
          "type": "bytes32"
        }
      ],
      "name": "delegateBySig",
      "outputs": [],
      "stateMutability": "nonpayable",
      "type": "function"
    },
    {
      "inputs": [
        {
          "internalType": "address",
          "name": "account",
          "type": "address"
        }
      ],
      "name": "delegates",
      "outputs": [
        {
          "internalType": "address",
          "name": "",
          "type": "address"
        }
      ],
      "stateMutability": "view",
      "type": "function"
    },
    {
      "inputs": [
        {
          "internalType": "address",
          "name": "account",
          "type": "address"
        },
        {
          "internalType": "uint256",
          "name": "amount",
          "type": "uint256"
        }
      ],
      "name": "depositFor",
      "outputs": [
        {
          "internalType": "bool",
          "name": "",
          "type": "bool"
        }
      ],
      "stateMutability": "nonpayable",
      "type": "function"
    },
    {
      "inputs": [],
      "name": "eip712Domain",
      "outputs": [
        {
          "internalType": "bytes1",
          "name": "fields",
          "type": "bytes1"
        },
        {
          "internalType": "string",
          "name": "name",
          "type": "string"
        },
        {
          "internalType": "string",
          "name": "version",
          "type": "string"
        },
        {
          "internalType": "uint256",
          "name": "chainId",
          "type": "uint256"
        },
        {
          "internalType": "address",
          "name": "verifyingContract",
          "type": "address"
        },
        {
          "internalType": "bytes32",
          "name": "salt",
          "type": "bytes32"
        },
        {
          "internalType": "uint256[]",
          "name": "extensions",
          "type": "uint256[]"
        }
      ],
      "stateMutability": "view",
      "type": "function"
    },
    {
      "inputs": [
        {
          "internalType": "uint256",
          "name": "timepoint",
          "type": "uint256"
        }
      ],
      "name": "getPastTotalSupply",
      "outputs": [
        {
          "internalType": "uint256",
          "name": "",
          "type": "uint256"
        }
      ],
      "stateMutability": "view",
      "type": "function"
    },
    {
      "inputs": [
        {
          "internalType": "address",
          "name": "account",
          "type": "address"
        },
        {
          "internalType": "uint256",
          "name": "timepoint",
          "type": "uint256"
        }
      ],
      "name": "getPastVotes",
      "outputs": [
        {
          "internalType": "uint256",
          "name": "",
          "type": "uint256"
        }
      ],
      "stateMutability": "view",
      "type": "function"
    },
    {
      "inputs": [
        {
          "internalType": "address",
          "name": "account",
          "type": "address"
        }
      ],
      "name": "getVotes",
      "outputs": [
        {
          "internalType": "uint256",
          "name": "",
          "type": "uint256"
        }
      ],
      "stateMutability": "view",
      "type": "function"
    },
    {
      "inputs": [
        {
          "internalType": "address",
          "name": "spender",
          "type": "address"
        },
        {
          "internalType": "uint256",
          "name": "addedValue",
          "type": "uint256"
        }
      ],
      "name": "increaseAllowance",
      "outputs": [
        {
          "internalType": "bool",
          "name": "",
          "type": "bool"
        }
      ],
      "stateMutability": "nonpayable",
      "type": "function"
    },
    {
      "inputs": [],
      "name": "name",
      "outputs": [
        {
          "internalType": "string",
          "name": "",
          "type": "string"
        }
      ],
      "stateMutability": "view",
      "type": "function"
    },
    {
      "inputs": [
        {
          "internalType": "address",
          "name": "owner",
          "type": "address"
        }
      ],
      "name": "nonces",
      "outputs": [
        {
          "internalType": "uint256",
          "name": "",
          "type": "uint256"
        }
      ],
      "stateMutability": "view",
      "type": "function"
    },
    {
      "inputs": [
        {
          "internalType": "address",
          "name": "account",
          "type": "address"
        }
      ],
      "name": "numCheckpoints",
      "outputs": [
        {
          "internalType": "uint32",
          "name": "",
          "type": "uint32"
        }
      ],
      "stateMutability": "view",
      "type": "function"
    },
    {
      "inputs": [
        {
          "internalType": "address",
          "name": "owner",
          "type": "address"
        },
        {
          "internalType": "address",
          "name": "spender",
          "type": "address"
        },
        {
          "internalType": "uint256",
          "name": "value",
          "type": "uint256"
        },
        {
          "internalType": "uint256",
          "name": "deadline",
          "type": "uint256"
        },
        {
          "internalType": "uint8",
          "name": "v",
          "type": "uint8"
        },
        {
          "internalType": "bytes32",
          "name": "r",
          "type": "bytes32"
        },
        {
          "internalType": "bytes32",
          "name": "s",
          "type": "bytes32"
        }
      ],
      "name": "permit",
      "outputs": [],
      "stateMutability": "nonpayable",
      "type": "function"
    },
    {
      "inputs": [],
      "name": "symbol",
      "outputs": [
        {
          "internalType": "string",
          "name": "",
          "type": "string"
        }
      ],
      "stateMutability": "view",
      "type": "function"
    },
    {
      "inputs": [],
      "name": "totalSupply",
      "outputs": [
        {
          "internalType": "uint256",
          "name": "",
          "type": "uint256"
        }
      ],
      "stateMutability": "view",
      "type": "function"
    },
    {
      "inputs": [
        {
          "internalType": "address",
          "name": "to",
          "type": "address"
        },
        {
          "internalType": "uint256",
          "name": "amount",
          "type": "uint256"
        }
      ],
      "name": "transfer",
      "outputs": [
        {
          "internalType": "bool",
          "name": "",
          "type": "bool"
        }
      ],
      "stateMutability": "nonpayable",
      "type": "function"
    },
    {
      "inputs": [
        {
          "internalType": "address",
          "name": "from",
          "type": "address"
        },
        {
          "internalType": "address",
          "name": "to",
          "type": "address"
        },
        {
          "internalType": "uint256",
          "name": "amount",
          "type": "uint256"
        }
      ],
      "name": "transferFrom",
      "outputs": [
        {
          "internalType": "bool",
          "name": "",
          "type": "bool"
        }
      ],
      "stateMutability": "nonpayable",
      "type": "function"
    },
    {
      "inputs": [],
      "name": "underlying",
      "outputs": [
        {
          "internalType": "contract IERC20",
          "name": "",
          "type": "address"
        }
      ],
      "stateMutability": "view",
      "type": "function"
    },
    {
      "inputs": [
        {
          "internalType": "address",
          "name": "account",
          "type": "address"
        },
        {
          "internalType": "uint256",
          "name": "amount",
          "type": "uint256"
        }
      ],
      "name": "withdrawTo",
      "outputs": [
        {
          "internalType": "bool",
          "name": "",
          "type": "bool"
        }
      ],
      "stateMutability": "nonpayable",
      "type": "function"
    }
  ],
  "bytecode": "0x610180346200054657601f6200314338819003918201601f19168301916001600160401b0383118484101762000319578084926020946040528339810103126200054657516001600160a01b0381168103620005465760405162000063816200054b565b60088152673b2426aa37b5b2b760c11b908160208201526040519162000089836200054b565b60088352602083015260405192620000a1846200054b565b60048452631d92135560e21b602085015260405192620000c1846200054b565b60018452603160f81b60208501528051906001600160401b038211620003195760035490600182811c921680156200053b575b60208310146200040e5781601f849311620004c6575b50602090601f83116001146200043b576000926200042f575b50508160011b916000199060031b1c1916176003555b83516001600160401b0381116200031957600454600181811c9116801562000424575b60208210146200040e57601f8111620003a8575b50602094601f82116001146200033b579481929394956000926200032f575b50508160011b916000199060031b1c1916176004555b620001b08262000567565b91610120928352620001c2846200072b565b9061014091825260208151910120938460e0526020815191012093610100948086524660a0526040519060208201927f8b73c3c69bb8fe3d512ecc4cf759cc79239f7b179b0ffacaa9a75d522b39400f8452604083015260608201524660808201523060a082015260a0815260c081019181831060018060401b0384111762000319576040839052815190206080523060c08190526001600160a01b03851614620002d55750506101609182526040519261285f9485620008e4863960805185611711015260a051856117cc015260c051856116db015260e051856117600152518461178601525183610a1e01525182610a480152518181816103fd0152818161059101528181610918015261165d0152f35b62461bcd60e51b8252602060c4820152601e60e48201527f4552433230577261707065723a2063616e6e6f742073656c662077726170000061010490910152606490fd5b634e487b7160e01b600052604160045260246000fd5b0151905038806200018f565b601f19821695600460005260206000209160005b8881106200038f5750836001959697981062000375575b505050811b01600455620001a5565b015160001960f88460031b161c1916905538808062000366565b919260206001819286850151815501940192016200034f565b60046000527f8a35acfbc15ff81a39ae7d344fd709f28e8600b4aa8c65c6b64bfe7fe36bd19b601f830160051c81016020841062000406575b601f830160051c82018110620003f957505062000170565b60008155600101620003e1565b5080620003e1565b634e487b7160e01b600052602260045260246000fd5b90607f16906200015c565b01519050388062000123565b600360009081527fc2575a0e9e593c00f959f8c92f12db2869c3395a3b0502d05e2516446f71f85b9350601f198516905b818110620004ad575090846001959493921062000493575b505050811b0160035562000139565b015160001960f88460031b161c1916905538808062000484565b929360206001819287860151815501950193016200046c565b60036000529091507fc2575a0e9e593c00f959f8c92f12db2869c3395a3b0502d05e2516446f71f85b601f840160051c8101916020851062000530575b90601f859493920160051c01905b8181106200052057506200010a565b6000815584935060010162000511565b909150819062000503565b91607f1691620000f4565b600080fd5b604081019081106001600160401b038211176200031957604052565b8051602091908281101562000606575090601f825111620005a557808251920151908083106200059657501790565b82600019910360031b1b161790565b90604051809263305a27a960e01b82528060048301528251908160248401526000935b828510620005ec575050604492506000838284010152601f80199101168101030190fd5b8481018201518686016044015293810193859350620005c8565b6001600160401b03811162000319576005928354926001938481811c9116801562000720575b838210146200040e57601f8111620006e9575b5081601f84116001146200067f575092829391839260009462000673575b50501b916000199060031b1c191617905560ff90565b0151925038806200065d565b919083601f1981168760005284600020946000905b88838310620006ce5750505010620006b4575b505050811b01905560ff90565b015160001960f88460031b161c19169055388080620006a7565b85870151885590960195948501948793509081019062000694565b8560005284601f846000209201871c820191601f8601881c015b828110620007135750506200063f565b6000815501859062000703565b90607f16906200062c565b805160209081811015620007b95750601f8251116200075857808251920151908083106200059657501790565b90604051809263305a27a960e01b82528060048301528251908160248401526000935b8285106200079f575050604492506000838284010152601f80199101168101030190fd5b84810182015186860160440152938101938593506200077b565b906001600160401b0382116200031957600654926001938481811c91168015620008d8575b838210146200040e57601f81116200089e575b5081601f841160011462000832575092829391839260009462000826575b50501b916000199060031b1c19161760065560ff90565b0151925038806200080f565b919083601f198116600660005284600020946000905b8883831062000883575050501062000869575b505050811b0160065560ff90565b015160001960f88460031b161c191690553880806200085b565b85870151885590960195948501948793509081019062000848565b600660005284601f84600020920160051c820191601f860160051c015b828110620008cb575050620007f1565b60008155018590620008bb565b90607f1690620007de56fe6080604052600436101561001257600080fd5b60003560e01c806306fdde03146101d7578063095ea7b3146101d257806318160ddd146101cd578063205c2878146101c857806323b872dd146101c35780632f4f21e2146101be578063313ce567146101b95780633644e515146101b457806339509351146101af5780633a46b1a8146101aa5780634bf5d7e9146101a5578063587cde1e146101a05780635c19a95c1461019b5780636f307dc3146101965780636fcfff451461019157806370a082311461018c5780637ecebe001461018757806384b0196e146101825780638e539e8c1461017d57806391ddadf41461017857806395d89b41146101735780639ab24eb01461016e578063a457c2d714610169578063a9059cbb14610164578063c3cda5201461015f578063d505accf1461015a578063dd62ed3e146101555763f1127ed81461015057600080fd5b611064565b611018565b610eea565b610dd5565b610da4565b610d08565b610ca6565b610c1a565b610bee565b610afe565b610a03565b6109c9565b61098f565b610947565b610902565b6108de565b6108a3565b6107f1565b6106a0565b610654565b610631565b61060b565b610536565b61047c565b610372565b610354565b610323565b610230565b919082519283825260005b848110610208575050826000602080949584010152601f8019910116010190565b6020818301810151848301820152016101e7565b90602061022d9281815201906101dc565b90565b346102f2576000806003193601126102ef5760405181600354610252816110eb565b908184526020926001916001811690816000146102cd5750600114610292575b61028e85610282818903826111ac565b6040519182918261021c565b0390f35b929450600383528483205b8284106102ba575050508161028e93610282928201019338610272565b805485850187015292850192810161029d565b60ff191686860152505050151560051b82010191506102828161028e38610272565b80fd5b600080fd5b600435906001600160a01b03821682036102f257565b602435906001600160a01b03821682036102f257565b346102f25760403660031901126102f25761034961033f6102f7565b602435903361135f565b602060405160018152f35b346102f25760003660031901126102f2576020600254604051908152f35b346102f25760403660031901126102f25761038b6102f7565b602435331561042d5761042191816103a23361123b565b546103af828210156122d4565b036103b93361123b565b556103c78260025403600255565b60405182815260009033906000805160206127ea83398151915290602090a36103f082336125fc565b6103f9826123fa565b50507f000000000000000000000000000000000000000000000000000000000000000061147d565b60405160018152602090f35b60405162461bcd60e51b815260206004820152602160248201527f45524332303a206275726e2066726f6d20746865207a65726f206164647265736044820152607360f81b6064820152608490fd5b346102f25760603660031901126102f2576104956102f7565b61049d61030d565b6044359060018060a01b03831660005260016020526104c0336040600020611255565b5492600184016104d5575b610421935061157f565b8284106104f1576104ec836104219503338361135f565b6104cb565b60405162461bcd60e51b815260206004820152601d60248201527f45524332303a20696e73756666696369656e7420616c6c6f77616e63650000006044820152606490fd5b346102f25760403660031901126102f25761054f6102f7565b6024353033146105ba57610421916105b56040516323b872dd60e01b60208201523360248201523060448201528360648201526064815261058f8161115b565b7f0000000000000000000000000000000000000000000000000000000000000000611b93565b611cc6565b60405162461bcd60e51b815260206004820152602360248201527f4552433230577261707065723a20777261707065722063616e2774206465706f6044820152621cda5d60ea1b6064820152608490fd5b346102f25760003660031901126102f2576020610626611648565b60ff60405191168152f35b346102f25760003660031901126102f257602061064c6116d8565b604051908152f35b346102f25760403660031901126102f25761066d6102f7565b336000526001602052610684816040600020611255565b54602435810180911161069b57610349913361135f565b6111cf565b346102f25760403660031901126102f2576106b96102f7565b602435906106d865ffffffffffff6106d043611a55565b1683106111f3565b6001600160a01b03166000908152600a60205260408120805492909183600581116107a0575b50905b83821061074f57505081610728575050602060005b6040516001600160e01b039091168152f35b61074361074a91602093600019019060005260206000200190565b5460201c90565b610716565b909261075b8185611f15565b908263ffffffff610780610776858860005260206000200190565b5463ffffffff1690565b1611156107905750925b90610701565b935061079b906111e5565b61078a565b806107b06107b692969396611dab565b906117f2565b908263ffffffff6107d1610776858860005260206000200190565b1611156107e15750925b386106fe565b93506107ec906111e5565b6107db565b346102f25760003660031901126102f2574365ffffffffffff61081343611a55565b160361085e5761028e6040516108288161113b565b601d81527f6d6f64653d626c6f636b6e756d6265722666726f6d3d64656661756c7400000060208201526040519182918261021c565b60405162461bcd60e51b815260206004820152601d60248201527f4552433230566f7465733a2062726f6b656e20636c6f636b206d6f64650000006044820152606490fd5b346102f25760203660031901126102f25760206001600160a01b03806108c76102f7565b166000526009825260406000205416604051908152f35b346102f25760203660031901126102f2576109006108fa6102f7565b336117ff565b005b346102f25760003660031901126102f2576040517f00000000000000000000000000000000000000000000000000000000000000006001600160a01b03168152602090f35b346102f25760203660031901126102f2576001600160a01b036109686102f7565b16600052600a6020526020610981604060002054611873565b63ffffffff60405191168152f35b346102f25760203660031901126102f2576001600160a01b036109b06102f7565b1660005260006020526020604060002054604051908152f35b346102f25760203660031901126102f2576001600160a01b036109ea6102f7565b1660005260076020526020604060002054604051908152f35b346102f2576000806003193601126102ef57610aa190610a427f00000000000000000000000000000000000000000000000000000000000000006118d8565b90610a6c7f00000000000000000000000000000000000000000000000000000000000000006119b5565b9060405191610a7a83611176565b818352610aaf602091604051968796600f60f81b885260e0602089015260e08801906101dc565b9086820360408801526101dc565b904660608601523060808601528260a086015284820360c0860152602080855193848152019401925b828110610ae757505050500390f35b835185528695509381019392810192600101610ad8565b346102f25760203660031901126102f257600435610b2d65ffffffffffff610b2543611a55565b1682106111f3565b600b549060008260058111610bab575b50905b828210610b6c578280610b5a575060405160008152602090f35b61074a61074360209260001901611eeb565b9091610b788184611f15565b908263ffffffff610b8b61077685611eeb565b161115610b9b5750915b90610b40565b9250610ba6906111e5565b610b95565b806107b0610bbb92959395611dab565b908263ffffffff610bce61077685611eeb565b161115610bde5750915b38610b3d565b9250610be9906111e5565b610bd8565b346102f25760003660031901126102f2576020610c0a43611a55565b65ffffffffffff60405191168152f35b346102f2576000806003193601126102ef5760405181600454610c3c816110eb565b908184526020926001916001811690816000146102cd5750600114610c6b5761028e85610282818903826111ac565b929450600483528483205b828410610c93575050508161028e93610282928201019338610272565b8054858501870152928501928101610c76565b346102f25760203660031901126102f2576001600160a01b03610cc76102f7565b16600052600a602052604060002080548015600014610cee57505060405160008152602090f35b602091610cff91600019019061127b565b5054811c610716565b346102f25760403660031901126102f257610d216102f7565b60243590336000526001602052610d3c816040600020611255565b5491808310610d51576104219203903361135f565b60405162461bcd60e51b815260206004820152602560248201527f45524332303a2064656372656173656420616c6c6f77616e63652062656c6f77604482015264207a65726f60d81b6064820152608490fd5b346102f25760403660031901126102f257610349610dc06102f7565b602435903361157f565b60ff8116036102f257565b346102f25760c03660031901126102f257610dee6102f7565b60643590602435604435610e0184610dca565b804211610ea557610e90610ea0916109009560405190610e7882610e6a6020820195898b8860609194939260808201957fe48329057bfd03d55e49b547132e39cffd9c1820ad7b9d4c5307691425d15adf835260018060a01b0316602083015260408201520152565b03601f1981018452836111ac565b610e8b60a4359360843593519020611abc565b611ae2565b91610e9a83611af9565b146112a9565b6117ff565b60405162461bcd60e51b815260206004820152601d60248201527f4552433230566f7465733a207369676e617475726520657870697265640000006044820152606490fd5b346102f25760e03660031901126102f257610f036102f7565b610f0b61030d565b604435906064359260843593610f2085610dca565b804211610fd357610fbb610fce91610e6a61090097610fa8610f4187611af9565b604080517f6e71edae12b1b97f4d1f60370fef10105fa2faae0126114a169c64845d6126c9602082019081526001600160a01b03808c1693830193909352918b166060820152608081018c905260a081019290925260c082019590955292839060e0820190565b610e8b60c4359360a43593519020611abc565b6001600160a01b038381169116146112f1565b61135f565b60405162461bcd60e51b815260206004820152601d60248201527f45524332305065726d69743a206578706972656420646561646c696e650000006044820152606490fd5b346102f25760403660031901126102f257602061105b6110366102f7565b61103e61030d565b6001600160a01b0390911660009081526001845260409020611255565b54604051908152f35b346102f25760403660031901126102f25761107d6102f7565b63ffffffff60243581811681036102f2576110c76110cd916040946000602087516110a78161113b565b82815201526001600160a01b03166000908152600a60205285902061127b565b5061133d565b8251815190921682526020908101516001600160e01b031690820152f35b90600182811c9216801561111b575b602083101461110557565b634e487b7160e01b600052602260045260246000fd5b91607f16916110fa565b634e487b7160e01b600052604160045260246000fd5b604081019081106001600160401b0382111761115657604052565b611125565b60a081019081106001600160401b0382111761115657604052565b602081019081106001600160401b0382111761115657604052565b60c081019081106001600160401b0382111761115657604052565b601f909101601f19168101906001600160401b0382119082101761115657604052565b634e487b7160e01b600052601160045260246000fd5b906001820180921161069b57565b156111fa57565b60405162461bcd60e51b815260206004820152601960248201527804552433230566f7465733a20667574757265206c6f6f6b757603c1b6044820152606490fd5b6001600160a01b0316600090815260208190526040902090565b9060018060a01b0316600052602052604060002090565b604051906112798261113b565b565b80548210156112935760005260206000200190600090565b634e487b7160e01b600052603260045260246000fd5b156112b057565b60405162461bcd60e51b81526020600482015260196024820152784552433230566f7465733a20696e76616c6964206e6f6e636560381b6044820152606490fd5b156112f857565b60405162461bcd60e51b815260206004820152601e60248201527f45524332305065726d69743a20696e76616c6964207369676e617475726500006044820152606490fd5b9060405161134a8161113b565b602081935463ffffffff81168352811c910152565b6001600160a01b03808216929190831561142c5782169384156113dc57806113c67f8c5be1e5ebec7d5bd14f71427d1e84f3dd0314c0f7b2291e5b200ac8c7c3b925946113c16113d79560018060a01b03166000526001602052604060002090565b611255565b556040519081529081906020820190565b0390a3565b60405162461bcd60e51b815260206004820152602260248201527f45524332303a20617070726f766520746f20746865207a65726f206164647265604482015261737360f01b6064820152608490fd5b60405162461bcd60e51b8152602060048201526024808201527f45524332303a20617070726f76652066726f6d20746865207a65726f206164646044820152637265737360e01b6064820152608490fd5b60405163a9059cbb60e01b60208201526001600160a01b03909216602483015260448083019390935291815260808101916001600160401b038311828410176111565761127992604052611b93565b156114d357565b60405162461bcd60e51b815260206004820152602360248201527f45524332303a207472616e7366657220746f20746865207a65726f206164647260448201526265737360e81b6064820152608490fd5b1561152b57565b60405162461bcd60e51b815260206004820152602660248201527f45524332303a207472616e7366657220616d6f756e7420657863656564732062604482015265616c616e636560d01b6064820152608490fd5b6001600160a01b0392919083811680156115f557611279948316906115a58215156114cc565b846115af8461123b565b546115bc82821015611524565b036115c68461123b565b556115d08461123b565b8054860190556040518581526000805160206127ea83398151915290602090a3612671565b60405162461bcd60e51b815260206004820152602560248201527f45524332303a207472616e736665722066726f6d20746865207a65726f206164604482015264647265737360d81b6064820152608490fd5b60405163313ce56760e01b81526020816004817f00000000000000000000000000000000000000000000000000000000000000006001600160a01b03165afa6000918161169b575b5061022d5750601290565b9091506020813d6020116116d0575b816116b7602093836111ac565b810103126102f257516116c981610dca565b9038611690565b3d91506116aa565b307f00000000000000000000000000000000000000000000000000000000000000006001600160a01b031614806117c9575b15611733577f000000000000000000000000000000000000000000000000000000000000000090565b60405160208101907f8b73c3c69bb8fe3d512ecc4cf759cc79239f7b179b0ffacaa9a75d522b39400f82527f000000000000000000000000000000000000000000000000000000000000000060408201527f000000000000000000000000000000000000000000000000000000000000000060608201524660808201523060a082015260a081526117c381611191565b51902090565b507f0000000000000000000000000000000000000000000000000000000000000000461461170a565b9190820391821161069b57565b6001600160a01b039081166000818152600960208181526040808420805485845291852054939092528686166001600160a01b0319821681179092556112799692959294921692909183917f3134e8a2e6d97e929a7e54011ea5485d7d196dd5f0ba4d4ef95803e8e3fc257f9080a4611f2a565b63ffffffff90818111611884571690565b60405162461bcd60e51b815260206004820152602660248201527f53616665436173743a2076616c756520646f65736e27742066697420696e203360448201526532206269747360d01b6064820152608490fd5b60ff81146119165760ff811690601f821161190457604051916118fa8361113b565b8252602082015290565b604051632cd44ac360e21b8152600490fd5b50604051600554816000611929836110eb565b8083526020936001908181169081156119955750600114611953575b505061022d925003826111ac565b90939150600560005281600020936000915b81831061197d57505061022d93508201013880611945565b85548784018501529485019486945091830191611965565b91505061022d94925060ff191682840152151560051b8201013880611945565b60ff81146119d75760ff811690601f821161190457604051916118fa8361113b565b506040516006548160006119ea836110eb565b8083526020936001908181169081156119955750600114611a1357505061022d925003826111ac565b90939150600660005281600020936000915b818310611a3d57505061022d93508201013880611945565b85548784018501529485019486945091830191611a25565b65ffffffffffff90818111611a68571690565b60405162461bcd60e51b815260206004820152602660248201527f53616665436173743a2076616c756520646f65736e27742066697420696e203460448201526538206269747360d01b6064820152608490fd5b604290611ac76116d8565b906040519161190160f01b8352600283015260228201522090565b9161022d9391611af193612110565b9190916121b5565b6001600160a01b0316600090815260076020526040902080546001810190915590565b908160209103126102f2575180151581036102f25790565b15611b3b57565b60405162461bcd60e51b815260206004820152602a60248201527f5361666545524332303a204552433230206f7065726174696f6e20646964206e6044820152691bdd081cdd58d8d9595960b21b6064820152608490fd5b60405191906001600160a01b0316611baa8361113b565b6000806020938486527f5361666545524332303a206c6f772d6c6576656c2063616c6c206661696c656485870152848151910182855af1923d15611c51573d6001600160401b0381116111565761127994611c249360405192611c1687601f19601f84011601856111ac565b83523d60008785013e61271e565b8051918215928315611c39575b505050611b34565b611c499350820181019101611b1c565b388080611c31565b611c24916112799460609161271e565b15611c6857565b60405162461bcd60e51b815260206004820152603060248201527f4552433230566f7465733a20746f74616c20737570706c79207269736b73206f60448201526f766572666c6f77696e6720766f74657360801b6064820152608490fd5b906001600160a01b0382168015611d465760025482810180911161069b57611d4293611d2792611cf68593600255565b611cff8261123b565b8054840190556040518381526000906000805160206127ea83398151915290602090a3612638565b600254611d3d906001600160e01b031015611c61565b6124ea565b5050565b60405162461bcd60e51b815260206004820152601f60248201527f45524332303a206d696e7420746f20746865207a65726f2061646472657373006044820152606490fd5b8115611d95570490565b634e487b7160e01b600052601260045260246000fd5b8015611ee55780611e7e611e77611e6d611e63611e59611e4f611e45611e3b600161022d9a6000908b60801c80611ed9575b508060401c80611ecc575b508060201c80611ebf575b508060101c80611eb2575b508060081c80611ea5575b508060041c80611e98575b508060021c80611e8b575b50821c611e84575b811c1b611e34818b611d8b565b0160011c90565b611e34818a611d8b565b611e348189611d8b565b611e348188611d8b565b611e348187611d8b565b611e348186611d8b565b611e348185611d8b565b8092611d8b565b906126a3565b8101611e27565b6002915091019038611e1f565b6004915091019038611e14565b6008915091019038611e09565b6010915091019038611dfe565b6020915091019038611df3565b6040915091019038611de8565b91505060809038611ddd565b50600090565b600b6000527f0175b7a638427703f0dbe7bb9bbf987a2551717b34e79f33b5b1008d1fa01db90190565b90808216911860011c810180911161069b5790565b6001600160a01b03808316939291168084141580612107575b611f4e575b50505050565b80611faa575b5082611f61575b80611f48565b6001600160a01b03166000908152600a6020526040902060008051602061280a83398151915291611f9191612543565b60408051928352602083019190915290a2388080611f5b565b80600052600a60205260008051602061280a83398151915260406000208054801591826000146120e457611fdc61126c565b6000815260006020820152915b6020830151612008906001600160e01b03165b6001600160e01b031690565b9261201389856127af565b941590816120c1575b501561205f5761204461204992612032866126b5565b92600019019060005260206000200190565b61232b565b604080519182526020820192909252a238611f54565b506120bc9061208361207e61207343611a55565b65ffffffffffff1690565b611873565b906120b7612090866126b5565b6120a761209b61126c565b63ffffffff9095168552565b6001600160e01b03166020840152565b612398565b612049565b5163ffffffff16905063ffffffff6120db61207343611a55565b9116143861201c565b6121016120fc60001984018360005260206000200190565b61133d565b91611fe9565b50821515611f43565b9291906fa2a8918ca85bafe22016d0b997e4df60600160ff1b0383116121895791608094939160ff602094604051948552168484015260408301526060820152600093849182805260015afa1561217c5781516001600160a01b03811615612176579190565b50600190565b50604051903d90823e3d90fd5b50505050600090600390565b6005111561219f57565b634e487b7160e01b600052602160045260246000fd5b6121be81612195565b806121c65750565b6121cf81612195565b6001810361221b5760405162461bcd60e51b815260206004820152601860248201527745434453413a20696e76616c6964207369676e617475726560401b6044820152606490fd5b0390fd5b61222481612195565b600281036122715760405162461bcd60e51b815260206004820152601f60248201527f45434453413a20696e76616c6964207369676e6174757265206c656e677468006044820152606490fd5b8061227d600392612195565b1461228457565b60405162461bcd60e51b815260206004820152602260248201527f45434453413a20696e76616c6964207369676e6174757265202773272076616c604482015261756560f01b6064820152608490fd5b156122db57565b60405162461bcd60e51b815260206004820152602260248201527f45524332303a206275726e20616d6f756e7420657863656564732062616c616e604482015261636560f01b6064820152608490fd5b9063ffffffff82549181199060201b169116179055565b600b5490600160401b821015611156576001820180600b558210156112935761127991600b6000526020600020019063ffffffff81511663ffffffff19835416178255602060018060e01b03910151169061232b565b8054600160401b811015611156576123b59160018201815561127b565b6123e4578163ffffffff61127993511663ffffffff19835416178255602060018060e01b03910151169061232b565b634e487b7160e01b600052600060045260246000fd5b600b54909181159182156124d55761241061126c565b60008152600060208201525b602081015161243e90612437906001600160e01b0316611ffc565b95866127af565b931590816124b2575b5015612467576112799061204461245d856126b5565b9160001901611eeb565b5061127961247a61207e61207343611a55565b6124ad612486856126b5565b61249d61249161126c565b63ffffffff9094168452565b6001600160e01b03166020830152565b612342565b5163ffffffff16905063ffffffff6124cc61207343611a55565b91161438612447565b6124e56120fc6000198301611eeb565b61241c565b600b549091811591821561252e5761250061126c565b60008152600060208201525b602081015161243e90612527906001600160e01b0316611ffc565b95866127bc565b61253e6120fc6000198301611eeb565b61250c565b9091815491821592836000146125df5761255b61126c565b60008152600060208201525b602081015161258990612582906001600160e01b0316611ffc565b96876127bc565b941590816125bc575b50156125a85761204461127992612032866126b5565b506112799061208361207e61207343611a55565b5163ffffffff16905063ffffffff6125d661207343611a55565b91161438612592565b6125f76120fc60001983018460005260206000200190565b612567565b6001600160a01b039081166000908152600960205260408120549080526000805160206127ca8339815191525461127993929081169116611f2a565b60096020526000805160206127ca833981519152546001600160a01b039182166000908152604090205461127993929081169116611f2a565b6001600160a01b0390811660009081526009602052604080822054938316825290205461127993929082169116611f2a565b90808210156126b0575090565b905090565b6001600160e01b03908181116126c9571690565b60405162461bcd60e51b815260206004820152602760248201527f53616665436173743a2076616c756520646f65736e27742066697420696e20326044820152663234206269747360c81b6064820152608490fd5b919290156127805750815115612732575090565b3b1561273b5790565b60405162461bcd60e51b815260206004820152601d60248201527f416464726573733a2063616c6c20746f206e6f6e2d636f6e74726163740000006044820152606490fd5b8251909150156127935750805190602001fd5b60405162461bcd60e51b8152908190612217906004830161021c565b90810390811161069b5790565b90810180911161069b579056feec8156718a8372b1db44bb411437d0870f3e3790d4a08526d024ce1b0b668f6bddf252ad1be2c89b69c2b068fc378daa952ba7f163c4a11628f55a4df523b3efdec2bacdd2f05b59de34da9b523dff8be42e5e38e818c82fdb0bae774387a724a2646970667358221220ef7fefe9d936b0082ad3ef6eccca43377e713b0dc14d1e78b4721275e63f97fc64736f6c63430008170033",
  "linkReferences": {},
  "deployedLinkReferences": {}
}