{
  "_format": "hh-sol-artifact-1",
  "contractName": "DAOSpokeContract",
  "sourceName": "contracts/governance/DAOSpokeContract.sol",
  "abi": [
    {
      "inputs": [
        {
          "internalType": "bytes32",
          "name": "_hubContractAddress",
          "type": "bytes32"
        },
        {
          "internalType": "uint16",
          "name": "_hubContractChainId",
          "type": "uint16"
        },
        {
          "internalType": "contract IVotes",
          "name": "_token",
          "type": "address"
        },
        {
          "internalType": "uint256",
          "name": "_targetSecondsPerBlock",
          "type": "uint256"
        },
        {
          "internalType": "uint16",
          "name": "_chainId",
          "type": "uint16"
        },
        {
          "internalType": "address",
          "name": "_wormholeRelayerAddress",
          "type": "address"
        },
        {
          "internalType": "address",
          "name": "_magistrateAddress",
          "type": "address"
        }
      ],
      "stateMutability": "nonpayable",
      "type": "constructor"
    },
    {
      "anonymous": false,
      "inputs": [
        {
          "indexed": true,
          "internalType": "address",
          "name": "previousMagistrate",
          "type": "address"
        },
        {
          "indexed": true,
          "internalType": "address",
          "name": "newMagistrate",
          "type": "address"
        }
      ],
      "name": "MagistrateChanged",
      "type": "event"
    },
    {
      "anonymous": false,
      "inputs": [
        {
          "indexed": true,
          "internalType": "address",
          "name": "voter",
          "type": "address"
        },
        {
          "indexed": false,
          "internalType": "uint256",
          "name": "proposalId",
          "type": "uint256"
        },
        {
          "indexed": false,
          "internalType": "uint8",
          "name": "support",
          "type": "uint8"
        },
        {
          "indexed": false,
          "internalType": "uint256",
          "name": "weight",
          "type": "uint256"
        },
        {
          "indexed": false,
          "internalType": "string",
          "name": "reason",
          "type": "string"
        }
      ],
      "name": "VoteCast",
      "type": "event"
    },
    {
      "inputs": [
        {
          "internalType": "uint256",
          "name": "proposalId",
          "type": "uint256"
        },
        {
          "internalType": "uint8",
          "name": "support",
          "type": "uint8"
        }
      ],
      "name": "castVote",
      "outputs": [
        {
          "internalType": "uint256",
          "name": "",
          "type": "uint256"
        }
      ],
      "stateMutability": "nonpayable",
      "type": "function"
    },
    {
      "inputs": [],
      "name": "chainId",
      "outputs": [
        {
          "internalType": "uint16",
          "name": "",
          "type": "uint16"
        }
      ],
      "stateMutability": "view",
      "type": "function"
    },
    {
      "inputs": [
        {
          "internalType": "uint256",
          "name": "proposalId",
          "type": "uint256"
        },
        {
          "internalType": "address",
          "name": "account",
          "type": "address"
        }
      ],
      "name": "hasVoted",
      "outputs": [
        {
          "internalType": "bool",
          "name": "",
          "type": "bool"
        }
      ],
      "stateMutability": "view",
      "type": "function"
    },
    {
      "inputs": [],
      "name": "hubContractAddress",
      "outputs": [
        {
          "internalType": "bytes32",
          "name": "",
          "type": "bytes32"
        }
      ],
      "stateMutability": "view",
      "type": "function"
    },
    {
      "inputs": [],
      "name": "hubContractChainId",
      "outputs": [
        {
          "internalType": "uint16",
          "name": "",
          "type": "uint16"
        }
      ],
      "stateMutability": "view",
      "type": "function"
    },
    {
      "inputs": [
        {
          "internalType": "uint256",
          "name": "proposalId",
          "type": "uint256"
        }
      ],
      "name": "isProposal",
      "outputs": [
        {
          "internalType": "bool",
          "name": "",
          "type": "bool"
        }
      ],
      "stateMutability": "view",
      "type": "function"
    },
    {
      "inputs": [],
      "name": "magistrate",
      "outputs": [
        {
          "internalType": "address",
          "name": "",
          "type": "address"
        }
      ],
      "stateMutability": "view",
      "type": "function"
    },
    {
      "inputs": [
        {
          "internalType": "bytes32",
          "name": "",
          "type": "bytes32"
        }
      ],
      "name": "processedMessages",
      "outputs": [
        {
          "internalType": "bool",
          "name": "",
          "type": "bool"
        }
      ],
      "stateMutability": "view",
      "type": "function"
    },
    {
      "inputs": [
        {
          "internalType": "uint256",
          "name": "",
          "type": "uint256"
        }
      ],
      "name": "proposalVotes",
      "outputs": [
        {
          "internalType": "uint256",
          "name": "againstVotes",
          "type": "uint256"
        },
        {
          "internalType": "uint256",
          "name": "forVotes",
          "type": "uint256"
        },
        {
          "internalType": "uint256",
          "name": "abstainVotes",
          "type": "uint256"
        }
      ],
      "stateMutability": "view",
      "type": "function"
    },
    {
      "inputs": [
        {
          "internalType": "uint256",
          "name": "",
          "type": "uint256"
        }
      ],
      "name": "proposals",
      "outputs": [
        {
          "internalType": "uint256",
          "name": "proposalCreation",
          "type": "uint256"
        },
        {
          "internalType": "uint256",
          "name": "localVoteStart",
          "type": "uint256"
        },
        {
          "internalType": "uint256",
          "name": "localVoteEnd",
          "type": "uint256"
        },
        {
          "internalType": "uint256",
          "name": "localVoteStartBlock",
          "type": "uint256"
        },
        {
          "internalType": "bool",
          "name": "voteFinished",
          "type": "bool"
        }
      ],
      "stateMutability": "view",
      "type": "function"
    },
    {
      "inputs": [
        {
          "internalType": "bytes",
          "name": "payload",
          "type": "bytes"
        },
        {
          "internalType": "bytes[]",
          "name": "",
          "type": "bytes[]"
        },
        {
          "internalType": "bytes32",
          "name": "sourceAddress",
          "type": "bytes32"
        },
        {
          "internalType": "uint16",
          "name": "sourceChain",
          "type": "uint16"
        },
        {
          "internalType": "bytes32",
          "name": "deliveryHash",
          "type": "bytes32"
        }
      ],
      "name": "receiveWormholeMessages",
      "outputs": [],
      "stateMutability": "payable",
      "type": "function"
    },
    {
      "inputs": [],
      "name": "targetSecondsPerBlock",
      "outputs": [
        {
          "internalType": "uint256",
          "name": "",
          "type": "uint256"
        }
      ],
      "stateMutability": "view",
      "type": "function"
    },
    {
      "inputs": [],
      "name": "token",
      "outputs": [
        {
          "internalType": "contract IVotes",
          "name": "",
          "type": "address"
        }
      ],
      "stateMutability": "view",
      "type": "function"
    },
    {
      "inputs": [
        {
          "internalType": "address",
          "name": "newMagistrate",
          "type": "address"
        }
      ],
      "name": "transferMagistrate",
      "outputs": [],
      "stateMutability": "nonpayable",
      "type": "function"
    },
    {
      "inputs": [],
      "name": "withdrawFunds",
      "outputs": [],
      "stateMutability": "nonpayable",
      "type": "function"
    },
    {
      "inputs": [],
      "name": "wormholeRelayer",
      "outputs": [
        {
          "internalType": "contract IWormholeRelayer",
          "name": "",
          "type": "address"
        }
      ],
      "stateMutability": "view",
      "type": "function"
    }
  ],
  "bytecode": "0x610140346200016f57601f6200163538819003918201601f19168301916001600160401b03831184841017620001745780849260e0946040528339810103126200016f57805162000053602083016200018a565b6040830151916001600160a01b03919082841684036200016f5760608501519262000081608087016200018a565b936200009e60c06200009660a08a016200019a565b98016200019a565b958260005497168060018060a01b03198916176000558360405198167fb4aa40c4569b1278aa7da5bab0f345910781d388f8257b0bec17a317e2efb6b5600080a360c05260e0526101209384526101009516855260805260a0526114859283620001b084396080518381816107f40152610c93015260a0518381816107b801528181610e7e0152610f5e015260c051838181610641015261089a015260e05183818161023a0152818161128201526112c201525182818161082d01528181610c6501526111b7015251816107790152f35b600080fd5b634e487b7160e01b600052604160045260246000fd5b519061ffff821682036200016f57565b51906001600160a01b03821682036200016f5756fe6080604052600436101561001257600080fd5b60003560e01c8063013cf08b1461011757806324600fc31461011257806332d0c46d1461010d57806334feb31814610108578063438596321461010357806345e6efa1146100fe578063529dca32146100f9578063544ffc9c146100f457806356781388146100ef57806388ba16ab146100ea5780639a8a0592146100e5578063b0f6b697146100e0578063d8c71a92146100db578063da25b725146100d6578063e1171999146100d15763fc0c546a146100cc57600080fd5b610884565b61085c565b610817565b6107dc565b61079d565b61075e565b61072d565b610592565b61054f565b610487565b610384565b61033d565b61026e565b610222565b610179565b3461017457602036600319011261017457600435600052600160205260a06040600020805490600181015490600281015460ff60046003840154930154169260405194855260208501526040840152606083015215156080820152f35b600080fd5b346101745760008060031936011261021f576101936110ae565b478047106101da57818080806101d294335af13d156101d5573d6101b68161040a565b906101c460405192836103c3565b81528360203d92013e611118565b80f35b611118565b60405162461bcd60e51b815260206004820152601d60248201527f416464726573733a20696e73756666696369656e742062616c616e63650000006044820152606490fd5b80fd5b346101745760003660031901126101745760206040517f00000000000000000000000000000000000000000000000000000000000000008152f35b6001600160a01b0381160361017457565b346101745760203660031901126101745760043561028b8161025d565b6102936110ae565b6001600160a01b0390811680156102e157600080546001600160a01b03198116831782559092167fb4aa40c4569b1278aa7da5bab0f345910781d388f8257b0bec17a317e2efb6b58380a380f35b60405162461bcd60e51b815260206004820152602e60248201527f4d6167697374726174653a206e6577206d61676973747261746520697320746860448201526d65207a65726f206164647265737360901b6064820152608490fd5b3461017457604036600319011261017457602060ff6103786024356103618161025d565b6004356000526002845260036040600020016108c9565b54166040519015158152f35b34610174576000366003190112610174576000546040516001600160a01b039091168152602090f35b634e487b7160e01b600052604160045260246000fd5b601f909101601f19168101906001600160401b038211908210176103e657604052565b6103ad565b6040519060a082016001600160401b038111838210176103e657604052565b6001600160401b0381116103e657601f01601f191660200190565b81601f820112156101745780359061043c8261040a565b9261044a60405194856103c3565b8284526020838301011161017457816000926020809301838601378301015290565b61ffff81160361017457565b606435906104858261046c565b565b60a0366003190112610174576001600160401b03600435818111610174576104b3903690600401610425565b60248035908382116101745736602383011215610174578160040135938085116103e6578460051b90602460208097604051906104f2838701836103c3565b81520192850101933685116101745760248101925b858410610529576105278761051a610478565b6084359160443590610c4b565b005b83358381116101745788916105448392883691870101610425565b815201930192610507565b3461017457602036600319011261017457600435600052600260205260606040600020805490600260018201549101549060405192835260208301526040820152f35b346101745760403660031901126101745760043560243560ff811681036101745781602060036105cf61063d956000526001602052604060002090565b6105e06105db85611098565b610f85565b6105fd6105f86105f4600484015460ff1690565b1590565b610fdd565b600181015442101580610720575b61061490611029565b0154604051630748d63560e31b8152336004820152602481019190915293849081906044820190565b03817f00000000000000000000000000000000000000000000000000000000000000006001600160a01b03165afa91821561071b576106d6936000936106da575b50828161069c8260008051602061143083398151915294338761134b565b6040805194855260ff919091166020850152830152608060608301819052600090830152339160a090a26040519081529081906020820190565b0390f35b60008051602061143083398151915291935061070d9060203d602011610714575b61070581836103c3565b810190611089565b929061067e565b503d6106fb565b610bc5565b506002810154421061060b565b34610174576020366003190112610174576004356000526003602052602060ff604060002054166040519015158152f35b3461017457600036600319011261017457602060405161ffff7f0000000000000000000000000000000000000000000000000000000000000000168152f35b3461017457600036600319011261017457602060405161ffff7f0000000000000000000000000000000000000000000000000000000000000000168152f35b346101745760003660031901126101745760206040517f00000000000000000000000000000000000000000000000000000000000000008152f35b34610174576000366003190112610174576040517f00000000000000000000000000000000000000000000000000000000000000006001600160a01b03168152602090f35b3461017457602036600319011261017457602061087a600435611098565b6040519015158152f35b34610174576000366003190112610174576040517f00000000000000000000000000000000000000000000000000000000000000006001600160a01b03168152602090f35b9060018060a01b0316600052602052604060002090565b156108e757565b60405162461bcd60e51b815260206004820152601460248201527313db9b1e481c995b185e595c88185b1b1bddd95960621b6044820152606490fd5b1561092a57565b60405162461bcd60e51b815260206004820152603460248201527f4f6e6c79206d657373616765732066726f6d207468652068756220636f6e74726044820152736163742063616e2062652072656365697665642160601b6064820152608490fd5b1561099357565b60405162461bcd60e51b815260206004820152601960248201527813595cdcd859d948185b1c9958591e481c1c9bd8d95cdcd959603a1b6044820152606490fd5b60005b8381106109e75750506000910152565b81810151838201526020016109d7565b608081830312610174578051610a0c8161025d565b926020820151610a1b8161046c565b926040830151610a2a8161025d565b606084015190936001600160401b038211610174570181601f82011215610174578051610a568161040a565b92610a6460405194856103c3565b8184526020828401011161017457610a8291602080850191016109d4565b90565b15610a8c57565b60405162461bcd60e51b815260206004820152602a60248201527f4d657373616765206973206e6f742061646472657373656420666f72207468696044820152691cc818dbdb9d1c9858dd60b21b6064820152608490fd5b91908260409103126101745760208251610afd8161046c565b92015190565b90602091610b1c815180928185528580860191016109d4565b601f01601f1916010190565b909261ffff608093610a829695845216602083015260018060a01b031660408201528160608201520190610b03565b9081602091031261017457516001600160401b03811681036101745790565b93959490610ba860c09461ffff809316875260018060a01b03809516602088015260e0604088015260e0870190610b03565b96600060608701526207a12060808701521660a085015216910152565b6040513d6000823e3d90fd5b908160a0910312610174578051610be78161046c565b916020820151916040810151916080606083015192015190565b15610c0857565b60405162461bcd60e51b815260206004820152601b60248201527a283937b837b9b0b61024a21036bab9ba103132903ab734b8bab29760291b6044820152606490fd5b92610d0f9192610d2c610d1f60018060a01b0393610cc2857f00000000000000000000000000000000000000000000000000000000000000001694610c918633146108e0565b7f00000000000000000000000000000000000000000000000000000000000000009889149081610f53575b50610923565b610ceb610ce66105f4610cdf846000526003602052604060002090565b5460ff1690565b61098c565b610d00885198602080809b83010191016109f7565b98929150508630911614610a85565b6000526003602052604060002090565b805460ff19166001179055565b8483019361ffff8551168015600014610de75750505050610d5a83926104859483610dac9451010190610bd1565b9195929350610d73610d6e6105f486611098565b610c01565b610d7c8161126a565b92610d856103eb565b96875286015260408501526060840152600060808401526000526001602052604060002090565b60046080918351815560208401516001820155604084015160028201556060840151600382015501910151151560ff80198354169116179055565b929492600114610dfa575b505050505050565b610f0d94610e12610eb0948887819851010190610ae4565b919050610e29826000526002602052604060002090565b92610ebc6001850154610e6960028754970154604051978893888d86019094939260809260a0830196600084526020840152604083015260608201520152565b03610e7c601f19918281018852876103c3565b7f0000000000000000000000000000000000000000000000000000000000000000956040519889918b898733928601610b28565b039081018852876103c3565b610eec6004610ede610ecd87611187565b956000526001602052604060002090565b01805460ff19166001179055565b1693604051968795869485936312d729bd60e21b8552828260048701610b76565b03925af1801561071b57610f25575b80808080610df2565b81610f4492903d10610f4c575b610f3c81836103c3565b810190610b57565b503880610f1c565b503d610f32565b905061ffff809116907f0000000000000000000000000000000000000000000000000000000000000000161438610cbc565b15610f8c57565b60405162461bcd60e51b8152602060048201526024808201527f44414f53706f6b65436f6e74726163743a206e6f742061207374617274656420604482015263766f746560e01b6064820152608490fd5b15610fe457565b60405162461bcd60e51b815260206004820152601f60248201527f44414f53706f6b65436f6e74726163743a20766f74652066696e6973686564006044820152606490fd5b1561103057565b60405162461bcd60e51b815260206004820152602b60248201527f44414f53706f6b65436f6e74726163743a20766f7465206e6f7420637572726560448201526a6e746c792061637469766560a81b6064820152608490fd5b90816020910312610174575190565b6000526001602052600160406000200154151590565b6000546001600160a01b031633036110c257565b60405162461bcd60e51b815260206004820152602860248201527f4d6167697374726174653a2063616c6c6572206973206e6f7420746865206d61604482015267676973747261746560c01b6064820152608490fd5b1561111f57565b60405162461bcd60e51b815260206004820152603a60248201527f416464726573733a20756e61626c6520746f2073656e642076616c75652c20726044820152791958da5c1a595b9d081b585e481a185d99481c995d995c9d195960321b6064820152608490fd5b6040805163c23ee3c360e01b815261ffff929092166004830152600060248301526207a1206044830152816064817f00000000000000000000000000000000000000000000000000000000000000006001600160a01b03165afa90811561071b576000916111f3575090565b90506040813d60401161121a575b8161120e604093836103c3565b81010312610174575190565b3d9150611201565b634e487b7160e01b600052601160045260246000fd5b8115611242570490565b634e487b7160e01b600052601260045260246000fd5b9190820180921161126557565b611222565b428111156112b357428103908111611265576112a7907f000000000000000000000000000000000000000000000000000000000000000090611238565b43018043116112655790565b4203428111611265576112e7907f000000000000000000000000000000000000000000000000000000000000000090611238565b43034381116112655790565b156112fa57565b60405162461bcd60e51b815260206004820152602360248201527f44414f53706f6b65436f6e74726163743a20766f746520616c72656164792063604482015262185cdd60ea1b6064820152608490fd5b9161138b610d1f61136960ff94956000526002602052604060002090565b94600386016113866113816105f4610cdf85856108c9565b6112f3565b6108c9565b16806113a257509061139e908254611258565b9055565b600181036113ba5750600161139e9101918254611258565b6002036113d057600261139e9101918254611258565b60405162461bcd60e51b815260206004820152603160248201527f44414f53706f6b65436f6e74726163743a20696e76616c69642076616c756520604482015270666f7220656e756d20566f74655479706560781b6064820152608490fdfeb8e138887d0aa13bab447e82de9d5c1777041ecd21ca36ba824ff1e6c07ddda4a2646970667358221220de38340e76883331968acd9ededbe30fba0a7fd22e3f74cf6f50caee7654988d64736f6c63430008170033",
  "linkReferences": {},
  "deployedLinkReferences": {}
}